:100000000C94AD070C94D5070C94D5070C94D50728
:100010000C94C22B0C94D5070C94D5070C94D029C2
:100020000C94D5070C94D5070C94D5070C94A32BEE
:100030000C94D5070C94D5070C94D5070C94D507D0
:100040000C9486290C94D5070C94522A0C942C2AD3
:100050000C94D5070C94D5070C94D5070C94D507B0
:100060000C94842A0C94D50700000D121102EF1E87
:10007000000D121102EF3C000D121102EF5A000D9B
:10008000121102EF78000D121102EF96000D1211FD
:1000900002EFB4000D121102EFD2000D121102EFA7
:1000A000F0000D121102EF0E010D121102EF2C01E2
:1000B0000D121102EF4A010D121102EF680100004A
:1000C000070001680103110803F06F0109070B0124
:1000D000EF77010D120D00F095010C150D01EFB534
:1000E0000114111501F0E00110121101F0040204D5
:1000F000070601EF080206170801EF1A02061708A3
:1001000001EF2C0208080901EF34020C0B0E01F676
:10011000450203080702FD480206030801F94B02E5
:1001200003040702FD4D0207110700F05C020B12E9
:100130000D01F0750207110D02F084020B110D0183
:10014000F09C020B120D01F0B5020C110D01F0CF65
:10015000020B120D01F0E8020B120D01F001030C6D
:10016000110D01F01B030C120D01F036030B120DE3
:1001700001F04F03030C0803F5540303100803F5C3
:100180005A030C0B0E01F66B030C090E01F77903F1
:100190000C0B0E01F68A030B120F02EFA3031615C8
:1001A0001701EFDD0310121101EF01040E1211020D
:1001B000EF21040F131101EF45040E121102EF6538
:1001C000040D121002EF83040C120F02EF9E0410B4
:1001D000121301EFC2040E121102EFE20403120720
:1001E00002EFE9040B130D01EF04050F121102EFEA
:1001F00026050C120F02EF410511121402EF6805DB
:100200000E121102EF880511131301EFB1050D1243
:100210001002EFCF0511131301EFF8050E121102B2
:10022000EF18060E131001EF3A060E120F00EF5AE8
:10023000060E131102EF7C060F121001EF9E061638
:10024000121700EFD0060F121001EFF2060F121076
:1002500001EF14070D120F01EF320705170802EF27
:10026000410707110700F0500706170800EF620763
:100270000C0B0E01F073070F020DFF047707050347
:100280000800EF79070C0E0D01F48E070D130F0116
:10029000EFAD070C0E0D01F4C2070C130F01EFDFD9
:1002A000070C0E0D01F4F40708120800EF06080C05
:1002B000120F01F421080B120F02EF3A0803120784
:1002C00002EF410805170700EF50080C120D01EF6F
:1002D0006B0803120702EF7208130D1501F4910861
:1002E0000B0D0F02F4A3080D0E0F01F4BA080D1246
:1002F0000F01F4D8080C120F01F4F308070D0902DE
:10030000F4FF080B0E0D01F4130907110800F12288
:10031000090C0E0F01F437090D0D0D00F44D0912F3
:100320000D1300F46B090D0D0D00F481090D120D74
:1003300000F49F090A0D0C01F4B00907170901EF39
:10034000C50902170702EFCB0906170902EFDD09FD
:100350000B050E01F9E4090D121102EFFFFFFFFF7B
:10036000FFC07E03F01F80FC07E03F01F80FC07E56
:1003700003F01F80FC07FFFFFFC0FFFFFFFFFFC070
:100380007E03F01F80FC07E03F01F80FC07E03F002
:100390001F80FC07FFFFFFC0FFFFFFFFFFC07E03C2
:1003A000F01F80FC07E03F01F80FC07E03F01F80C4
:1003B000FC07FFFFFFC0FFFFFFFFFFC07E03F01F32
:1003C00080FC07E03F01F80FC07E03F01F80FC07B0
:1003D000FFFFFFC0FFFFFFFFFFC07E03F01F80FC99
:1003E00007E03F01F80FC07E03F01F80FC07FFFF0E
:1003F000FFC0FFFFFFFFFFC07E03F01F80FC07E090
:100400003F01F80FC07E03F01F80FC07FFFFFFC015
:10041000FFFFFFFFFFC07E03F01F80FC07E03F01EE
:10042000F80FC07E03F01F80FC07FFFFFFC0FFFF37
:10043000FFFFFFC07E03F01F80FC07E03F01F80FC5
:10044000C07E03F01F80FC07FFFFFFC0FFFFFFFF20
:10045000FFC07E03F01F80FC07E03F01F80FC07E65
:1004600003F01F80FC07FFFFFFC0FFFFFFFFFFC07F
:100470007E03F01F80FC07E03F01F80FC07E03F011
:100480001F80FC07FFFFFFC0FFFFFFFFFFC07E03D1
:10049000F01F80FC07E03F01F80FC07E03F01F80D3
:1004A000FC07FFFFFFC0FFFFFFFFFFC07E03F01F41
:1004B00080FC07E03F01F80FC07E03F01F80FC07BF
:1004C000FFFFFFC0FFFFFFFF21FFE0F3F9FCFE7E0F
:1004D0003B1D840E7073839C18C7FFBFFDFFE39C18
:1004E00018C0C60E7DFFEFFF18C0C60E7073839C48
:1004F000000401F87FCFDEE4EE4EE40F407E03FC03
:100500000FE05E04FE4FE4FF4E7FE3FC0400400476
:10051000003C0607E060FF0C0C3080C3180C310073
:10052000FF3007E6003C60000C7C00CFE019C601FC
:1005300098703187031C6060FE0407C00F801FC0E5
:100540003DE038E03CE01DC01FC00F003F8C7BDC6D
:1005500071DCF1FCF0F8F07879FC7FFC3F9E000044
:10056000FFFFE6600C718E31C738E38E38E38E38BA
:1005700071C70E3870C0C3861C70E38E1C71C71C17
:1005800071CE38E71C638C00101010FE7C386C4470
:10059000060060060060FFFFFFFFF06006006006D7
:1005A00000FFF2FEFFFFC0FFF00408306083060882
:1005B0001060C1060C1020C03F8FF9EF78FE0FC10C
:1005C000F83F07E0FC1F83F07E0FE3DEF3FE3F8081
:1005D00080061C7FFFE1C3870E1C3870E1C3870EC5
:1005E0003F8FFBEFF87E0FC1C0380F03C0F07C1FB8
:1005F0000780E03FFFFFFFE03F8FFBCFF0FE1E03D1
:10060000C0707C0FC0FC03807E0FC1FCFBFE3F80EE
:100610008007C07C0FC0FC1FC3BC33C73C63CE3C0B
:10062000FFFFFFFFF03C03C03C03C03FEFFDFFB8FE
:100630000600C01FE7FEF1E01C0380700FC1FCFB49
:10064000FE3F80801F87F9E7B87E01C03BE7FEFBD5
:10065000FE1F83F07E0FE1DEFBFE3F8080FFFFFF89
:10066000FFF00E01C03C0380700F00E00E01E01CA3
:1006700001C01C03C03C003F87FCF9EE0EE0EE0E0B
:1006800071C3F87FCF1EE0EE0FE0FE0EF1E7FC3FF6
:1006900080403F0FFBEF70FE0FC1F83F0FF3EFFC00
:1006A000FB80700FC3FEF3FE3F8080FF8000FFF0F1
:1006B000FF8000FFF2DE00701F0FE7F0F80E00FC75
:1006C00003F80FE01F0030FFFFFFFFF00000000005
:1006D000FFFFFFFFF0C00F807F00FC03F00703F176
:1006E000FCFE0F80C0001F0FF3FF78FE0FC1C03863
:1006F0000F03E0F83C0700E0000380700E01C0002B
:10070000FC000FFE00F03C070038380030C000E667
:100710000FF19873C7C3870F0C1C3C3061F1C18681
:10072000C70E1B1C38EC3BEF38FDF870C180E000B1
:1007300001C01003FFC003FF0003C007C007E007AC
:10074000E00FE00EF00EF01E701C781C783C383F75
:10075000FC3FFC7FFC701EF01EF00EE00FFF03FF5D
:10076000CFFFBC7EF03BC0EF03BFFEFFE3FFCF0F28
:10077000BC0FF01FC0FF03FFFEFFFBFF8003C01F85
:10078000F0FFF1F1E781EF01FC007800F001E003F8
:10079000C007800F00EF01DE079FFE1FFC1FE00473
:1007A00000FE03FF8FFF387EE07B80FE03F807E04A
:1007B0001F807E01F807E03F80FE07BFFEFFF3FFCA
:1007C00000FFFFFFFFFFE00F007803C01FFEFFF7F1
:1007D000FFBC01E00F007803C01FFFFFFFFFC0FF59
:1007E000FFFFFFFE00E00E00E00FFEFFEFFEE00E59
:1007F00000E00E00E00E00E00E0003E00FF81FFC2A
:100800003E3E780F700FF000F000F000F07FF07FB8
:10081000F07FF007780F7C1F3FFF1FFB0FF3E03FD7
:1008200080FE03F80FE03F80FE03FFFFFFFFFFFEA7
:1008300003F80FE03F80FE03F80FE03F80F0FFFF7A
:10084000FFFFFFFFFC01E03C0780F01E03C0780FB4
:1008500001E03C0780FE1FC3F87FFEFFCFF00000E1
:10086000E03DC0FB83E7078E1E1C7839E07780FFF0
:1008700001FF03FE079E0E1E1C1E383C703CE03D2F
:10088000C03CF00F00F00F00F00F00F00F00F00F71
:1008900000F00F00F00F00F00FFFFFFFFFF81FFC4C
:1008A0000FFE07FF83FFC3FFE1FFB0FFDC6FEE77B2
:1008B000F73BF99DFCCCFE767F3F3F8F9FC7CFE390
:1008C000C7F1E3C0E03FC0FF03FE0FFC3FF0FEE3D3
:1008D000FB8FE73F9EFE3BF8FFE1FF83FE0FF81F13
:1008E000E07F80F003E007FC07FF07CFC781F3C07C
:1008F0007BC01DE00FF007F803FC01FE00FF007352
:10090000C079F07C7FFC1FFC07FC002000FF07FF84
:100910003FFDC3FE07F01F80FC0FE0FFFFBFF9FFA4
:100920000E007003801C00E007000003E007FC07D6
:10093000FF07CFC780F3C07BC01FE00FF007F803AD
:10094000FC01FE04FF0773C3F9F0FC7FFC1FFF07E7
:10095000FFC020C0FF83FFCFFFBC3FF03FC0FF03BD
:10096000FC0FFFFBFF8FFFBC1EF03BC0EF03BC0E74
:10097000F03FC0F00F80FFC7FFBE1EF03BC0FF007E
:100980003F807FE0FFE03FC00F001F807F03FF1F1D
:100990007FF8FFC00000FFFFFFFFFFFFE003800EB6
:1009A000003800E003800E003800E003800E0038BD
:1009B00000E003800E00E03F80FE03F80FE03F8080
:1009C000FE03F80FE03F80FE03F80FE03FC0FF0793
:1009D0009FFE7FF07F802000E01FC03BC0F381E7D7
:1009E000038F0F0E1C1C383C7039C07380E700FC6D
:1009F00001F803F003C007800F00F0381DC1E0F7D5
:100A000087C3DE1F0F787C38E3B0E38EC78F3B9C33
:100A10001CEE707339C1DC670771B80FC7E03E1F69
:100A200080F83E01E0F00783C01E0F00F03DF07932
:100A3000E1E1E3C3CF03FC07F807E007800F003FC5
:100A4000007F01FE079E0F3C3C3CF83DE078F01F24
:100A5000E079E0F3C3C3C7879E073C0F700FE01F28
:100A6000801F003C007800F001E003C007800F0009
:100A7000FFFFFFFFFFFFF00F00F00F807807807887
:100A800007807C03C03C03C01FFFFFFFFFC0FFFFC8
:100A9000CE739CE739CE739CE739CFFFE0C181026A
:100AA00006040818302060C081830206FFFFC71CBF
:100AB00071C71C71C71C71C71C71C7FFFFC00F0035
:100AC000F00F01F81B839C39C30C70E70EE070FF38
:100AD000FFFFFC71863F87FCFFEE1E01E0FE7FEF0B
:100AE0008EE1EE1EF3EFFE7EE100F007803C01E0B8
:100AF0000F007BE3FF9FFEF8F783FC1FE0FF07F882
:100B00003FC1DF9EFFE7FE00401F83FC7FEF0EE04A
:100B1000EE00E00E00E00F0E79E7FC3F8000007071
:100B2000070070070071E73FF7FFF0FE0FE07E0758
:100B3000E07E0FF0F79F7FF3F700001F07FC7BEECE
:100B40000EE0EFFEFFFFFFE00E0EF1E7FC3F8040FE
:100B5000001E3E3C3CFFFFFF3C3C3C3C3C3C3C3CE4
:100B60003C3C1E73F77FFF0FF0FE07E07E07E07F3F
:100B70000F79F7FF3F7007007F0F7FE3FCE01C0356
:100B800080700E01DF3FF7FFF1FC1F83F07E0FC185
:100B9000F83F07E0FC1CFFF1FFFFFFFFFC39CE70C0
:100BA0001CE739CE739CE739CE7FFFC0F00F00F011
:100BB0000F00F00F0EF1EF3CF78FF0FF0FF0FF8FFB
:100BC0003CF3CF1EF1EF0FFFFFFFFFFFFFFCF7CF5E
:100BD0009FFFFBFFFFF878FF0E1FE1C3FC387F8704
:100BE0000FF0E1FE1C3FC387F870FF0E1EEF9FFB66
:100BF000FFF8FE0FC1F83F07E0FC1F83F07E0E1FD9
:100C000081FF1FFDE1EF07703F81FC0FE07F839EB6
:100C10003CFFC3FC0100F7C7FF3FFDF1EF07F83FC2
:100C2000C1FE0FF07F83BE3DFFCF7C7883C01E00E6
:100C3000F00780001E77F77FFF0FE0FE07E07E07DA
:100C4000E0FF0FF9F7FF3F7047007007007007EFF4
:100C5000FFFF8E1C3870E1C3870E003F8FFBEFF85B
:100C60007F01FE1FF0FF01FC1FC3FFF7FC080038E7
:100C700070E7FFFFCE1C3870E1C3870F8F04F07F51
:100C800007F07F07F07F07F07F07F07F0F79F7FF0E
:100C90003F7080F07B839E1C71E38E1E707383B85F
:100CA0001DC07E03E01F007800F0E1DC78771F3D77
:100CB000C7CE79F38EECE3BB78ECFC1F3F07CFC1C6
:100CC000F1E07C780E1E0078F3C78F783B81FC073B
:100CD000C01E01F01FC0EF0F78F1E78780F07B8323
:100CE0009E1CF1E38E1E707383B81DC07E03E01F4F
:100CF000007803801C01E03E01E000FFFFFFFC1EC6
:100D00000F83C1E0F0783C0FFFFFFFC0063CF9C342
:100D1000870E1C3873C70F070E1C3870E1C3E7C776
:100D200080FFFFFFFFFFFCC3CF0C38E38E38E3C723
:100D30003CE38E38E38EF3CE00100F85BDE1F00862
:100D4000FFFFFFFFFFC07E03F01F80FC07E03F01B5
:100D5000F80FC07E03F01F80FC07FFFFFFC00000FC
:100D600050003C002400B602B602400050003C0097
:100D7000240016031603800050003C0024000C02DF
:100D80000C02C00050003C00240070017001000102
:100D900050003C00240015021602000078003C00C0
:100DA000240018031803400078003C0024000902C6
:100DB0000902800078003C0024001A031A03C000D6
:100DC00078003C0024000F020F02000178003C0074
:100DD00024001802F7010000A0003C0024000602D5
:100DE00006024000A0003C0024001C031C038000FD
:100DF000A0003C0024001E031E03C000A0003C0015
:100E00002400700170010001A0003C0024001B02BE
:100E100020030000000000000000000000000000AF
:100E2000000000000000000000005C036800147F68
:100E30002100000A009F00240074017701A0000A2D
:100E4000009F0024008201F701000050003C0024B4
:100E50000050012203400050003C002400580124AF
:100E600003800050003C00240054019301C0005056
:100E7000003C00240095012C02000150003C00249D
:100E80000091012603000078003C002400F9011CB9
:100E900003400078003C002400FC01180380007827
:100EA000003C002400FF010C02C00078003C00243C
:100EB0000002021603000178003C0024000502062F
:100EC000020000A0003C002400080209024000A02B
:100ED000003C0024000E02B6028000A0003C00246A
:100EE000002A029601C000A0003C0024002E0252FD
:100EF000010001A0003C00240011022803000000B2
:100F000000240027002A00000000002300260029FA
:100F100000000000080002010000030407000000B8
:100F200000000000000102040810204080010204BB
:100F300008102001020408102000000000250028ED
:100F4000002B00040404040404040402020202024C
:100F500002030303030303023A2C11241FBECFEF45
:100F6000D8E0DEBFCDBF13E0A0E0B1E0E6E8FCE6EC
:100F700002C005900D92AA32B107D9F725E0AAE286
:100F8000B3E001C01D92A737B207E1F717E0CDEA41
:100F9000D7E004C02197FE010E941036CC3AD10759
:100FA000C9F70E94732C0C9441360C940000CF9327
:100FB000DF93C9E6D4E0A881B981809126019091A0
:100FC0002701A81BB90B2AE030E00E94E2352091EE
:100FD000240130912501032E000C440B550B0E9477
:100FE000AC3539832883AA81BB81809122019091FD
:100FF0002301A81BB90B2AE030E00E94E2352091C2
:10100000200130912101032E000C440B550B0E944E
:10101000AC353B832A83DF91CF910895833081F0F3
:1010200028F4813099F08230A9F008958730A9F032
:101030008830C9F08430B1F4809180008F7D03C086
:10104000809180008F7780938000089584B58F779A
:1010500084BD089584B58F7DFBCF8091B0008F77DC
:101060008093B00008958091B0008F7DF9CFCF9329
:10107000DF93282F30E0F901EF5EF04F8491F90102
:10108000EB5DF04FD491F901ED5BF04FC491CC23AF
:10109000A1F081110E940E08EC2FF0E0EE0FFF1F6F
:1010A000E95FF04FA591B491EC91ED2381E090E0E0
:1010B00009F480E0DF91CF91089580E090E0FACFCD
:1010C0001F93CF93DF93282F30E0F901EF5EF04FAD
:1010D0008491F901EB5DF04FD491F901ED5BF04F94
:1010E000C491CC23A9F0162F81110E940E08EC2F79
:1010F000F0E0EE0FFF1FE75CF04FA591B4918FB7C2
:10110000F894EC91111108C0D095DE23DC938FBFC9
:10111000DF91CF911F910895DE2BF8CFCF93DF930E
:1011200090E0FC01EB5DF04F24918D5B904FFC0152
:1011300084918823D1F090E0880F991FFC01E3503F
:10114000F14FA591B491FC01E75CF04FC591D491AA
:10115000623071F49FB7F8943C91822F809583237D
:101160008C93E8812E2B28839FBFDF91CF91089528
:101170008FB7F894EC912E2B2C938FBFF6CF8F92D4
:101180009F92AF92BF92CF92DF92EF92FF92CF9356
:101190006C0180912801863069F08F3F09F470C09E
:1011A000CF91FF90EF90DF90CF90BF90AF909F9046
:1011B0008F900895E7E5FFE0C491C7FDF1CF61E0AE
:1011C00086E00E948E08CC2319F0C23009F022C1BB
:1011D000F12CE12C60E072E18AE790E0A701960132
:1011E0000E94AC3549015A01DA01C9010197A109F0
:1011F000B1098F3F9105A105B10509F00CF4EEC0CE
:1012000060E472E48FE090E0A70196010E94AC35A3
:101210002150310941095109C23009F0A0C082E0D2
:101220002F3F31054105510509F00CF488C160E9F3
:1012300070ED83E090E0A70196010E94AC3521504B
:1012400031094109510983E02F3F3105410551051D
:1012500009F00CF474C168E478EE81E090E0A70135
:1012600096010E94AC3521503109410951092F3FA7
:1012700031054105510511F00CF08FC084E05FC1CC
:1012800086E080932801E7E5FFE0C491CF3F09F4B1
:1012900087CFC13021F150F0C23009F43EC0C7FD04
:1012A0007FCF61E086E00E948E088FCF14BC15BC12
:1012B00084B5826084BD85B5816085BDE9E4FFE0C9
:1012C000E491F0E0EE0FFF1FE75CF04F8591949101
:1012D000EBE2FFE0E491E093C104C0E070CF109234
:1012E000800010928100809181008860809381004D
:1012F00080918100816080938100E9E4FFE0E491C6
:10130000F0E0EE0FFF1FE75CF04F85919491EBE268
:10131000FFE0E491E093C00452CF1092B00010922D
:10132000B1008091B00082608093B0008091B100E4
:1013300081608093B100E9E4FFE0E491F0E0EE0F1A
:10134000FF1FE75CF04F859194919093BF048093C9
:10135000BE04EBE2FFE0E491E093BD0430CF2F3F09
:1013600031054105510509F00CF452C068E478EEEE
:1013700081E090E0A70196010E94AC35215031092F
:1013800041095109CC2309F4AFC02F3F3105410574
:10139000510511F00CF0B0C071CF64E274EF80E041
:1013A00090E0A70196010E94AC3521503109410916
:1013B000510985E02F3F31054105510509F008F439
:1013C000BEC062E17AE780E090E0A70196010E944A
:1013D000AC3521503109410951099CC09C0181E083
:1013E000C111ADC095B5987F892B85BD27BD8FEF05
:1013F0009FEFDC018093CA049093CB04A093CC04AC
:10140000B093CD0480916E00826080936E00C8CE50
:1014100082E0E6CFF12CE12C60E072E18AE790E017
:10142000A70196010E94AC352150310941095109AB
:1014300091E02115310581E0480751056CF068E421
:1014400078EE81E090E0A70196010E94AC35215032
:1014500031094109510993E0C13009F076C080910A
:101460008100887F892B80938100309389002093AD
:1014700088008FEF9FEFDC018093C6049093C70430
:10148000A093C804B093C90480916F0082608093D8
:101490006F0086CE2093B3008FEF9FEFDC01809327
:1014A000C2049093C304A093C404B093C504809174
:1014B000700082608093700073CE84E02F3F31050E
:1014C0004105510509F008F48DCF9AE0B594A79431
:1014D000979487949A95D1F7A501940121503109E9
:1014E0004109510985E07ECF83E02F3F3105410559
:1014F000510509F00CF476CF62E17AE780E090E0E4
:10150000A70196010E94AC352150310941095109CA
:10151000CC2399F286E02F3F31054105510579F042
:1015200070F08AE0B594A794979487948A95D1F740
:10153000A5019401215031094109510987E0909199
:10154000B100987F892B8093B100C13009F48DCF11
:10155000C23009F49FCFC11123CE48CF3FB7F894D2
:101560008091450490914604A0914704B0914804AD
:1015700026B5A89B05C02F3F19F00196A11DB11DEE
:101580003FBFBA2FA92F982F8827BC01CD01620F2A
:10159000711D811D911D42E0660F771F881F991FE5
:1015A0004A95D1F708958F929F92AF92BF92CF92B2
:1015B000DF92EF92FF924B015C010E94AE0A6B0139
:1015C0007C010E94AE0A6C197D098E099F09683E54
:1015D000734081059105A8F321E0821A9108A108C2
:1015E000B10888EEC80E83E0D81EE11CF11C8114FE
:1015F0009104A104B10429F7FF90EF90DF90CF9000
:10160000BF90AF909F908F9008952FB7F8946091FE
:1016100041047091420480914304909144042FBF8F
:1016200008959091280189130BC0E7E5FFE0E4914C
:101630009FEF90932801E13049F028F0E23061F00B
:1016400060E00C94600810926E00FACF90916F00E9
:101650009D7F90936F00F4CF909170009D7F909349
:10166000700091E09093B0009091B100987F9460E9
:101670009093B1001092B300E3CFAF92BF92CF929C
:10168000DF92EF92FF920F931F93CF93DF936C0142
:101690007B018B01040F151FEB015E01AE18BF0823
:1016A000C017D10759F06991D601ED91FC910190D5
:1016B000F081E02DC6010995892B79F7C501DF91ED
:1016C000CF911F910F91FF90EF90DF90CF90BF903F
:1016D000AF900895FC01538D448D252F30E0842F69
:1016E00090E0821B930B541710F0CF96089501974A
:1016F0000895FC01918D828D981761F0A28DAE0F37
:10170000BF2FB11D5D968C91928D9F5F9F73928FBD
:1017100090E008958FEF9FEF0895FC01918D828DE9
:10172000981731F0828DE80FF11D858D90E00895B6
:101730008FEF9FEF0895FC01918D228D892F90E00E
:10174000805C9F4F821B91098F73992708958EECBF
:1017500094E00E949B0B21E0892B09F420E0822F6A
:10176000089580E090E0892B29F00E94A70B811159
:101770000C9400000895FC01A48DA80FB92FB11D91
:10178000A35ABF4F2C91848D90E001968F739927B7
:10179000848FA689B7892C93A089B1898C91837095
:1017A00080648C93938D848D981306C00288F3898E
:1017B000E02D80818F7D80830895EF92FF920F93BB
:1017C0001F93CF93DF93EC0181E0888F9B8D8C8DED
:1017D00098131AC0E889F989808185FF15C09FB7E1
:1017E000F894EE89FF896083E889F98980818370A4
:1017F000806480839FBF81E090E0DF91CF911F9153
:101800000F91FF90EF900895F62E0B8D10E00F5F73
:101810001F4F0F731127E02E8C8D8E110CC00FB649
:1018200007FCFACFE889F989808185FFF5CFCE01E1
:101830000E94BB0BF1CFEB8DEC0FFD2FF11DE35A96
:10184000FF4FF0829FB7F8940B8FEA89FB89808164
:101850008062CFCFCF93DF93EC01888D8823B9F0DE
:10186000AA89BB89E889F9898C9185FD03C08081AB
:1018700086FD0DC00FB607FCF7CF8C9185FFF2CF28
:10188000808185FFEDCFCE010E94BB0BE9CFDF91B8
:10189000CF9108952091F903260F3327331F21326A
:1018A0003105ECF420919304FC0190E080E02430B9
:1018B00069F082E00895A091F9032191AC014952A9
:1018C0005C4FA40FB52FB11D2C930196861798F38A
:1018D0008091F903680F6093F90380E0089581E037
:1018E00008951092930481E08093920410926D0405
:1018F00061E082E10E94600861E083E10E9460088B
:10190000E9EBF0E080818E7F808380818D7F808312
:1019100088E48093B80085E48093BC000895CF9359
:10192000DF9391E09093D6038823B9F0C091B8007B
:10193000D091BA008091BC008A7B8093BC0060E0AB
:1019400082E10E94600860E083E10E9460080E94DA
:10195000710CD093BA00C093B800DF91CF91089575
:10196000CF92DF92EF92FF920F931F93CF93DF936B
:10197000D091BC0481E0D13208F09CC0C091BB047E
:101980000E94AE0A6B017C018091930481116CC0AE
:1019900082E08093930481E0809392048FEF8093A0
:1019A000910410929004D0938F04ABE9B4E0EFE679
:1019B000F4E080E0D8138DC010926E0480916E0424
:1019C000CC0FC82BC0936E0480916D04813009F058
:1019D00084C010926D040E94AE0A6B017C0180915C
:1019E0006E048093BB008091950490919604A09121
:1019F0009704B0919804892B8A2B8B2BA1F00E941D
:101A0000AE0A0091950410919604209197043091AC
:101A100098046C197D098E099F0906171707280776
:101A2000390708F442C08091BC0083FDD8CF85EC13
:101A30008093BC000E94AE0A6B017C0180919304EC
:101A4000823009F44CC0809191048F3F09F469C041
:101A500080919104803209F466C0809191048033B2
:101A600009F463C084E026C08091950490919604A7
:101A7000A0919704B0919804892B8A2B8B2B09F4A1
:101A800083CF0E94AE0A0091950410919604209194
:101A90009704309198046C197D098E099F090617E7
:101AA00017072807390708F06FCF809194040E9428
:101AB0008F0C85E010929A041092BC041092990445
:101AC000DF91CF911F910F91FF90EF90DF90CF901A
:101AD00008959D9191938F5F6DCF85EEA9CF8091F1
:101AE000950490919604A0919704B0919804892B45
:101AF0008A2B8B2B09F4A2CF0E94AE0A0091950489
:101B00001091960420919704309198046C197D09E6
:101B10008E099F09061717072807390708F08ECF87
:101B2000C4CF80E0C7CF82E0C5CF83E0C3CF0895A4
:101B300008950895E091D5038091D403E81730F417
:101B4000F0E0EC54FC4F808190E008958FEF9FEF20
:101B500008959091D5038091D4032FEF3FEF98170C
:101B600048F4E92FF0E0EC54FC4F208130E09F5F17
:101B70009093D503C90108958091D4039091D50322
:101B8000891B990B0895CF92DF92EF92FF920F93EA
:101B90001F93CF93DF937C01CB018A01209199049D
:101BA000222389F0EB016B01C40ED51ECC15DD0597
:101BB00069F06991D701ED91FC910190F081E02DE0
:101BC000C7010995F3CF642F0E944A0CC801DF9129
:101BD000CF911F910F91FF90EF90DF90CF900895DC
:101BE000CF93DF931F92CDB7DEB76983209199041D
:101BF0002223F9F02091BC04203258F021E030E09B
:101C0000FC013383228390E080E00F90DF91CF913D
:101C1000089580919A04E82FF0E0E556FB4F9981F2
:101C200090838F5F80939A048093BC0481E090E05E
:101C3000ECCF61E0CE0101960E944A0CF7CF0F93E2
:101C40001F93CF93DF938B0191E09093990490E6DB
:101C50009093BB0410929A041092BC04682F8BE6F8
:101C600095E00E94F00DE80119E0115031F0699102
:101C70008BE695E00E94F00DF8CFDF91CF911F9198
:101C80000F910C94B00C90E080E0089580E10E94E8
:101C9000370821E030E0019711F430E020E0C9017D
:101CA0000895CF93C62F91E09093990490E6909376
:101CB000BB0410929A041092BC04682F8BE695E046
:101CC0000E94F00D6C2F8BE695E00E94F00DCF91F5
:101CD0000C94B00C4F925F926F927F928F929F9272
:101CE000AF92BF92CF92DF92EF92FF920F931F932A
:101CF000CF93DF93CDB7DEB728970FB6F894DEBF4A
:101D00000FBECDBF882E6A017B01A82EB12C01E049
:101D100010E001C0000F8A95EAF790900601DB0100
:101D2000CA018052914AA740B10981329449A7471C
:101D3000B640F8F00929009306016091060183E09E
:101D40000E94510E28960FB6F894DEBF0FBECDBF8D
:101D5000DF91CF911F910F91FF90EF90DF90CF9087
:101D6000BF90AF909F908F907F906F905F904F90BB
:101D70000895609107017091080180910901909187
:101D80000A01A70196010E948A3529013A01A7019B
:101D9000960122273327407F232B242B252B49F024
:101DA0009695879577956795F694E794D794C79419
:101DB000EECF27E0660F771F881F991F2A95D1F76E
:101DC000A70196010E948A35E7E0440C551C661C69
:101DD000771CEA95D1F7E2E05E1A61087108420EBD
:101DE000531E641E751ED982CA826B825C824D822C
:101DF000F4E0CC0CDD1CEE1CFF1CFA95D1F7CC24D2
:101E0000DD2420EFE222FF24E82AEE827F83688728
:101E1000882D880F880F880FBE016F5F7F4F865D0A
:101E20000E941F0EF501E75DFE4F60816C6080E14E
:101E3000880D0E94510E00959022909206017DCF50
:101E4000CF92DF92EF92FF926B017C0160E081E420
:101E5000C8168FE6D80680E4E80681E0F80650F45C
:101E600080E8C8168FE9D80685EDE806F10408F485
:101E700047C061E085E00E94600860E084E00E9465
:101E8000600860E083E00E94600880913E049091C9
:101E90003F0420913504222309F450C0892B09F412
:101EA00046C040910D0150910E0160910F0170915B
:101EB00010014853574461457D4F4C0D5D1D6E1D0B
:101EC0007F1D82E00E946A0E4091200450912104FF
:101ED00060912204709123044853574461457D4F1B
:101EE00081E00E946A0EC0923604D0923704E092DC
:101EF0003804F0923904FF90EF90DF90CF9008956E
:101F000060E081ECC8168FECD8068AE6E806F1049A
:101F100028F085E00E94600861E0B0CF85E00E9473
:101F2000600860E084E00E94600861E0ABCFB70128
:101F3000A6014853574461457D4FC3CF892B21F1FA
:101F400040910D0150910E0160910F0170911001AF
:101F50004853574461457D4F4C0D5D1D6E1D7F1DDF
:101F600082E00E946A0E8091200490912104A09149
:101F70002204B091230448EC58EB6EEA72E0481B4F
:101F8000590B6A0B7B0BACCFB701A60148535744E2
:101F900061457D4FE5CF0F931F93CF93DF93CDB76F
:101FA000DEB728970FB6F894DEBF0FBECDBF1092F4
:101FB000D5031092D40310929A041092BC040E948C
:101FC000710C87E99DE09093F8038093F70388E90B
:101FD0009DE09093FC038093FB0360E085E90E9401
:101FE000510E6091060183E00E94510E60E887EB7C
:101FF0000E94510E8E010F5F1F4F88E0F801119271
:102000008A95E9F781E08A838FE08C8380E88D836D
:10201000B8018AE10E941F0E60E281EB0E94510E1E
:10202000B80182E20E941F0E60EA81EB0E94510E0D
:102030008091240490912504A0912604B091270456
:1020400080549F48A84DBB4C809307019093080192
:10205000A0930901B0930A014091200450912104FA
:10206000609122047091230480E00E946A0E2896F9
:102070000FB6F894DEBF0FBECDBFDF91CF911F9199
:102080000F910895FC0120812EBD9B012150310943
:1020900041F051810DB407FEFDCF4EB55EBD4193B9
:1020A000F5CF61507109860F971F0DB407FEFDCF64
:1020B0002EB5FC0120830895FC01E61BF70B681781
:1020C00079071CF0FB01E81BF90B9C01241B350B65
:1020D000481759071CF09A01281B390BDA01A61B77
:1020E000B70B641775071CF0DB01A41BB50B2E178B
:1020F0003F075CF0AE17BF072CF0860F971F959532
:1021000087950895E217F3072CF0840F951FA21707
:10211000B307ACF7640F751FCB01F1CF0CB405FC0E
:102120000DC09EBD00000DB407FEFDCF9EB58EBD57
:1021300000000DB407FEFDCF8EB508958EBD0000E2
:102140000DB407FEFDCF8EB59EBD00000DB407FE99
:10215000FDCF9EB508958EBD00000DB407FEFDCFE6
:102160008EB50895EEE2FFE09491ECE4FFE0E49197
:10217000F0E0EE0FFF1FE75CF04FA591B491EC91FA
:10218000E92BEC930C94AB10EEE2FFE09491ECE4BD
:10219000FFE0E491F0E0EE0FFF1FE75CF04FA59148
:1021A000B4912C91E92FE095E223EC930C94AB10C1
:1021B000CF92DF92EF92FF920F931F93CF93DF9313
:1021C000D82EC92E162F072FF42EE52EE9018AE20C
:1021D0000E94C4108C2D0E94B2108D2D0E94B2104E
:1021E0008E2D0E94B2108F2D0E94B2108BE20E94A1
:1021F000C410802F0E94B210812F0E94B2108D2F28
:102200000E94B2108C2F0E94B2108CE2DF91CF910D
:102210001F910F91FF90EF90DF90CF900C94C4101E
:102220002F923F924F925F926F927F928F929F92E6
:10223000AF92BF92CF92DF92EF92FF920F931F93D4
:10224000CF93DF930E94050B2B013C01809100018D
:1022500090910101A0910201B0910301A3019201AB
:10226000281B390B4A0B5B0BDA01C9010397A10547
:10227000B10508F469C081E58CBD81E08DBD60E0E9
:1022800088E00E94600881EB0E94AB1081EC90E036
:102290000E948E10EC0163E0D695C7956A95E1F730
:1022A000C150D04F81E990E00E948E1073E0969566
:1022B00087957A95E1F7C81BD90BC03931E0D30770
:1022C0000CF46EC081E990E00E948E1081ED90E0E8
:1022D0000E948E106C0123E0D694C7942A95E1F7F2
:1022E00081E990E00E948E107C0133E0F694E7943F
:1022F0003A95E1F781ED90E00E948E105C0143E099
:10230000B694A7944A95E1F781E990E00E948E1077
:102310004C0153E0969487945A95E1F780ED90E054
:102320000E948E108C0190E080E00E948E101C01B3
:1023300061E088E00E946008C03941E0D407CCF534
:102340001092320310923103809131039091320345
:10235000803991400CF457C080912F039091300345
:1023600090936A048093690480912D0390912E03C9
:1023700090936C0480936B0481E0DF91CF911F9167
:102380000F91FF90EF90DF90CF90BF90AF909F9014
:102390008F907F906F905F904F903F902F90089517
:1023A000912C812CB12CA12CF12CE12CD12CC12C05
:1023B000B5CFD0933203C0933103A80183E0569583
:1023C00047958A95E1F7B501C6010E945C10EC01C2
:1023D000A10193E0569547959A95E1F7B401C7019D
:1023E0000E945C1040920001509201016092020133
:1023F00070920301D0933003C0932F0390932E0368
:1024000080932D03A1CF80E0B8CF0F931F93CF937C
:10241000DF93D82F8091150120E4829FC001112401
:10242000866080937C0080917A00806480937A003B
:1024300080917A00C82FC07486FDFACF0091780091
:102440001091790081E10E943708892B01F109354B
:1024500082E01807F4F0013223E01207B4F0809113
:102460001F01811105C0C1E00333110508F0C0E070
:10247000D13029F480911E018C2B80931E018C2F6A
:10248000DF91CF911F910F910895C2E0F1CFC1E08C
:10249000EFCF0D3281E01807D4F703331105FCF2BA
:1024A000C3E0E6CF86E00E94110B60E082E00E946C
:1024B00060080E94050BAB01BC0120911C0130910A
:1024C0001D01EAE0E29FC001E39F900D1124092E57
:1024D000000CAA0BBB0B840F951FA61FB71F809380
:1024E000300490933104A0933204B09333040895E0
:1024F00080910D0190910E010E94BF0861E082E081
:102500000E9460080E94050BAB01BC0120911C01D8
:1025100030911D01EAE0E29FC001E39F900D11247C
:10252000092E000CAA0BBB0B840F951FA61FB71F0B
:102530008093300490933104A0933204B093330419
:1025400008958091290490912A0497FD019695950C
:10255000879590912C03282F291B80932C03822F81
:10256000220F990B08958EE00E943708892B39F4C9
:102570008FE00E943708892B21F480E0089581E0E4
:10258000089582E00895CF93DF93EB010E946035B8
:102590008883CE01DF91CF9108950F931F93CF933E
:1025A000DF938C01EB010E9460358883C80101969E
:1025B0000E9460358983CE01DF91CF911F910F91E9
:1025C0000895CF92DF92EF92FF920F931F93CF93D4
:1025D000DF93EB017B0124E0E20EF11C8B016C0127
:1025E000C61AD70AC601800F911F0E946035F801F4
:1025F00081938F01EE15FF05A9F7CE01DF91CF91F1
:102600001F910F91FF90EF90DF90CF90089585ED8F
:102610008093BC008091950490919604A0919704BA
:10262000B09198040796A11DB11D23E0B695A7951A
:10263000979587952A95D1F72091BC0024FD03C07A
:1026400010929304089540919504509196046091DE
:10265000970470919804452B462B472B69F30097FC
:10266000A105B10541F02AE22A95F1F700C00197D2
:10267000A109B109E1CF809194040C948F0CEF92E1
:10268000FF920F931F93CF93DF937C018B01C1E3E4
:10269000DEE04CE050E0BE01C8010E94DC34F801ED
:1026A00060857185C7010E942136892B69F02C96BF
:1026B000FEE0CD3FDF0769F780E0DF91CF911F910A
:1026C0000F91FF90EF90089581E0F7CFCF92DF92C6
:1026D000EF92FF92CF93DF936B017C01EA018AE0D6
:1026E000DA011D928A95E9F7E9E4F4E08EE1DF0171
:1026F0001D928A95E9F72AE0AF01C7010E941435BF
:10270000B0E4CB16B2E4DB06BFE0EB06F104E4F480
:1027100080E28883898343E050E069E474E0CE017D
:102720000E94313663EB71E0CE010E94163642E022
:1027300050E06CE474E0CE01DF91CF91FF90EF9018
:10274000DF90CF900C943136E0E8CE16E6E9DE0655
:10275000E8E9EE06F1049CF480E2888344E050E06E
:1027600069E474E0CE010E94313663EB71E0CE0182
:102770000E94163642E050E06DE474E0DCCF45E0A4
:1027800050E069E474E0CE010E94313663EB71E001
:10279000CE010E94163642E050E06EE474E0CBCFEA
:1027A000FF920F931F93CF93DF93EC01F62E0881D6
:1027B0001981C8010E946035F81621F06F2DC801FB
:1027C0000E946835CE01DF91CF911F910F91FF904C
:1027D0000895EF92FF920F931F93CF93DF9300D052
:1027E000CDB7DEB78C017B019A838983FB016081C1
:1027F000CE0101960E94D0130F5F1F4F1A830983E9
:10280000F7016181CE0101960E94D013C7010F909C
:102810000F90DF91CF911F910F91FF90EF9008954E
:10282000AF92BF92CF92DF92EF92FF920F931F93DE
:10283000CF93DF9300D0CDB7DEB78B016B0124E0DF
:10284000C20ED11C7B015C01A61AB70AC5018E0D10
:102850009F1D9A838983F70161917F01CE010196C3
:102860000E94D013EC14FD0489F7C8010F900F905B
:10287000DF91CF911F910F91FF90EF90DF90CF905C
:10288000BF90AF900895CF93DF9300D0CDB7DEB760
:1028900080910B0166E374E0803111F066E171E034
:1028A00080E190E00E94101480911F04882359F168
:1028B00083E090E09A838983BE016F5F7F4F80E061
:1028C00091E00E94E91380910B0166E374E084318A
:1028D00011F061E171E084E190E00E9410148091B8
:1028E0000C01882399F083E090E09A838983BE01EC
:1028F0006F5F7F4F81E091E00E94E9130F900F908E
:10290000DF91CF91089582E090E0D4CF82E090E013
:10291000ECCFFF920F931F93CF93DF93CDB7DEB72A
:102920002C970FB6F894DEBF0FBECDBF20910B01E0
:10293000409709F098C0243151F580913604909168
:102940003704A0913804B091390480931101909319
:102950001201A0931301B093140180913504809368
:102960000C0166E374E084E190E00E941014809111
:102970000C01882309F474C083E090E09A83898372
:10298000BE016F5F7F4F81E091E00E94E91380E11B
:1029900080930B018091160190911701A09118016D
:1029A000B09119018093360490933704A0933804B2
:1029B000B093390480911F048093350460913604EC
:1029C0007091370480913804909139040E94200F4F
:1029D0000E945D1CBE016F5F7F4F80E591E00E9409
:1029E0003F13CE0101960E94701F0E94081F08EA43
:1029F00013E08CE0F82EF8018F2D11928A95E9F7FB
:102A000080E190E00E943E1BF8011192FA94E9F7F0
:102A100084E190E00E943E1BBE016F5F7F4F84E522
:102A200091E00E943F13CE0101960E94701FBE01EB
:102A30006F5F7F4F88E591E00E943F13CE010196C2
:102A40000E94701F0E9443142C960FB6F894DEBFAC
:102A50000FBECDBFDF91CF911F910F91FF900895D1
:102A600082E090E08BCF203149F58091360490913F
:102A70003704A0913804B0913904809316019093E3
:102A80001701A0931801B093190180913504809328
:102A90001F0466E374E080E190E00E9410148091CE
:102AA0001F04882309F183E090E09A838983BE01A3
:102AB0006F5F7F4F80E091E00E94E91384E1809393
:102AC0000B018091110190911201A0911301B0911D
:102AD00014018093360490933704A0933804B09384
:102AE000390480910C0168CF82E090E0DECF8F92B4
:102AF0009F92AF92BF92CF92DF92EF92FF920F938D
:102B00001F93CF93DF93CDB7DEB72E970FB6F89410
:102B1000DEBF0FBECDBF8EEC94E00E949B0B892BD5
:102B2000A9F410927F032E960FB6F894DEBF0FBE65
:102B3000CDBFDF91CF911F910F91FF90EF90DF906C
:102B4000CF90BF90AF909F908F9008958EEC94E0BF
:102B50000E949B0B05970CF042C010917F0311114E
:102B600015C08EEC94E00E949B0B80937F030E9423
:102B7000050B6C507E4F8F4F9F4F60937303709384
:102B800074038093750390937603CDCF0E94050B59
:102B9000C0907303D0907403E0907503F0907603B7
:102BA000C616D706E806F90688F410E08EEC94E025
:102BB0000E949B0B181719060CF0B3CF8EEC94E013
:102BC0000E94790B80937F031F5FF0CF8EEC94E01F
:102BD0000E949B0B181719060CF0A5CFC2CF0AE76D
:102BE00013E08EEC94E00E94790BF80181938F0141
:102BF000F3E00F371F07A9F780917903813009F4BB
:102C000092CF91E0909379032091770330917803EC
:102C10002F5F3F4F309378032093770380917E039B
:102C2000813809F456C1D0F5833009F4DBC0D0F403
:102C3000813009F454C0823009F4C6C060917A032F
:102C400070917B0380917C0390917D0320E140E8AB
:102C500053E00E9414351A8660E08EEC94E00E94E6
:102C6000DD0BB8C0873009F411C1883039F7809185
:102C70003C0481112BC11A8690933D040E945C1E76
:102C80000E94561C41E050E0BE01665F7F4F8EEC13
:102C900094E00E943D0B0E94561C9CC08B3B09F4A3
:102CA00025C178F4823809F498C0883839F68091C3
:102CB0003C04882321F00E94F91D10923D041A86DD
:102CC000E1CF873E09F4CEC1873F09F0B7CF8091AD
:102CD0003C04882309F4C9C180E0885FC4C1009125
:102CE0007A0310917B03F0917C03E0917D03A02F88
:102CF000A295AF70B0E020E031EE45EF55E00E94C4
:102D0000E9356B017C010F70A02FB0E020E836E9B7
:102D100048E950E00E94E935C60ED71EE81EF91EAC
:102D2000A12FAF70B0E020EA36E841E050E00E9409
:102D3000E935C60ED71EE81EF91E12951F70A12F89
:102D4000B0E020E432E44FE050E00E94E935C60EE6
:102D5000D71EE81EF91E2F2F2F7030E0A8EEB3E02B
:102D60000E94D335C60ED71EE81EF91EF295FF70DD
:102D70002F2F30E0A0E1B7E20E94D335C60ED71E58
:102D8000E81EF91E2E2F2F7030E0AAE0B0E00E945E
:102D9000D335C60ED71EE81EF91EE295EF702E2F12
:102DA00030E0A4E6B0E00E94D3356C0D7D1D8E1D91
:102DB0009F1D0E94200F0E94561C1A8641E050E081
:102DC000BE01665F7F4F5BC081E090E090939F0300
:102DD00080939E0310927903A6CE10929F031092C7
:102DE0009E03F8CF609136047091370480913804C7
:102DF000909139048E010F5F1F4F7E012AE0E20E91
:102E0000F11C2AE0822E912CA12CB12CA501940159
:102E10000E948A35F80161938F01B901CA01EE164B
:102E2000FF06A1F78A818F702B81F0E12F9F90011F
:102E30001124822B8D878C818F702D8190E1299FA9
:102E400090011124822B8C878E818F702F81E0E17D
:102E50002E9F90011124822B8B8788858F70298566
:102E6000F0E12F9F90011124822B8A8780913504F5
:102E7000882351F081E08E8745E050E0B7018EEC69
:102E800094E00E943D0BA6CF1E86F6CF80917A0378
:102E9000882311F08330B9F4109235041A8641E08A
:102EA00050E0BE01665F7F4F8EEC94E00E943D0BC8
:102EB0006091360470913704809138049091390400
:102EC0000E94200F87CF90933504E8CF80EF8A8748
:102ED000D9CE1A8680910B01803129F484E190E0EB
:102EE0000E948914CFCE80E190E0FACF90917A03CE
:102EF00080917B0310927A0310927B03803609F451
:102F000090C0F8F4873509F456C070F4873409F49A
:102F100041C0853509F445C0853471F480ED9330A6
:102F200059F480937B0308C08E3509F44EC008F035
:102F300074C08C3509F444C042E050E06AE773E0A5
:102F40009ECF873609F480C060F4823609F46FC0E2
:102F500008F451C0833681F782EB80937A0385EAC7
:102F6000E0CF883719F078F4893631F7809135044D
:102F7000882319F081E080937A0380917A03882373
:102F8000D9F280E213C08A3709F462C0833BA1F60C
:102F90008DE4C7CF933081F68CED80937A0380EE79
:102FA000C0CF80910B01843121F080E880937A03B7
:102FB000C3CF81E8FBCF80EC80937A0380E4B1CF6C
:102FC00082EB80937A0382E4ACCF60910D01709123
:102FD0000E0180910F01909110016C527140810996
:102FE000910922E330E040E050E00E948A352093CE
:102FF0007A0385E296CF60910D0170910E01809168
:103000000F019091100122E330E040E050E00E9477
:103010008A3560937A0388E084CF82E380937A03D1
:10302000FACF80911C0180937A0382E37ACF60917A
:103030001A0170911B0180EB94E00E947635645078
:1030400060937A0382EB6DCF82EB80937A0369CF32
:1030500080919E0390919F03892B11F48FE7A6CF57
:103060008FEFA4CF89E08A87A9CE80E836CE8F92F1
:103070009F92AF92BF92CF92DF92EF92FF926C013C
:103080000E94050B4B015C010D2C000CEE08FF08A3
:103090000E94050B681979098A099B09C616D7068B
:1030A000E806F90648F06AE070E080E090E00E94EF
:1030B000D30A0E947715ECCFFF90EF90DF90CF906E
:1030C000BF90AF909F908F9008950E94460E892BDD
:1030D00029F082E390E00E943718F7CF82E390E076
:1030E0000C9437182F923F924F925F926F927F927B
:1030F0008F929F92AF92BF92CF92DF92EF92FF9208
:103100000F931F93CF93DF93CDB7DEB7C654D1098A
:103110000FB6F894DEBF0FBECDBF5C014B01269603
:103120002FAF269727963FAF2797209167043091BE
:103130006804F90134965491329785919491451B16
:1031400057E0459F800D911D1124F901259134917F
:1031500025963FAF2EAF2597FC01C590D490FC017A
:103160003296349122963FAF22973196549123960E
:103170005FAF2397329644903196F49060E08AE0F6
:103180000E94600822968FAD2297282F30E0190107
:10319000220C331C712C612C80E0E12C8F0C911CD3
:1031A000F7FC9A94A40CB11C47FCBA942501420E7A
:1031B000531E23969FAD2397691608F054C0DE0175
:1031C00011962296FFAC2297F80E8F1521F191E00F
:1031D000980F877059F496012F5F3F4F2596EEADFB
:1031E000FFAD2597EC0DFD1DE4906901E7FE0EC0D3
:1031F0002796EFAD2797EC932696FFAD269711966D
:10320000FC931197EE0C1296892FDFCF1C93119629
:103210000C931197F7CFB401660D771D9B01A201A6
:10322000C5010E94D810EEE2FFE08491ECE4FFE0DB
:103230009491E92FF0E0EE0FFF1FE75CF04FA591AE
:10324000B4919C91892B8C932114310429F0B10104
:10325000CE0101960E9442100E947715FFEF6F1A6F
:103260007F0A8F2DA6CFCA5BDF4F0FB6F894DEBF63
:103270000FBECDBFDF91CF911F910F91FF90EF90C7
:10328000DF90CF90BF90AF909F908F907F906F9086
:103290005F904F903F902F9008957F928F929F92D2
:1032A000AF92BF92CF92DF92EF92FF920F931F9354
:1032B000CF93DF937B0149015C0187E0782E6A019F
:1032C00082E1C80ED11CF50141915F01442309F44C
:1032D00039C08091670490916804FC013496249170
:1032E000642F042E000C770B2617170609F05CF7E5
:1032F0003196E491E617170634F3FC013296C59136
:10330000D491842F821B879DC00DD11D1124FE01F5
:10331000329684913196E491882371F0EE2361F026
:10332000FE013596E4910FE010E09401B601C7016B
:103330000E9472180E947715FE013496E491EE0EF9
:10334000F11CC1CFDF91CF911F910F91FF90EF90B2
:10335000DF90CF90BF90AF909F908F907F90089517
:1033600081E080933A042FEF37E045E350E064E6D4
:1033700070E08CE591E00C944D194F925F926F9242
:103380007F92AF92BF92CF92DF92EF92FF920F9314
:103390001F93CF93DF93EC017B016A0159019A01DE
:1033A000281B390B2F5F3F4FD501A61BB70B11967A
:1033B0000E94CB352B013C0160E08AE00E9460084E
:1033C0008CE20E94C4109501A601B701CE010E94B3
:1033D000D810EEE2FFE08491ECE4FFE0E491F0E04D
:1033E000EE0FFF1FE75CF04FA591B491EC91E82B35
:1033F000EC93411451046104710431F1E3E3F3E00F
:1034000010830183329683E0E337F807C9F781E23E
:10341000481651046104710470F060E470E083E3C5
:1034200093E00E94421080E2481A51086108710836
:103430000E947715DECFB201660F771F83E393E01A
:103440000E9442100E94771561E08AE0DF91CF91DF
:103450001F910F91FF90EF90DF90CF90BF90AF90B2
:103460007F906F905F904F900C9460080F931F9324
:103470000FE010E02DE430E046E351E065E370E05A
:103480008EE190E00E94BD192FEF3FEF45E350E041
:103490006EE170E089E494E01F910F910C944D1956
:1034A0000F931F930FE010E020EF30E040E451E075
:1034B00069EC70E090E080E00E94BD1966E671E082
:1034C00089E494E00E942A3660911A0170911B01F0
:1034D00080EB94E00E947635CB014AE060E873E02F
:1034E0000E94E53460E873E089E494E00E941636B7
:1034F0006BE671E089E494E00E9416364AE060E8E9
:1035000073E080910D0190910E010E94E53460E816
:1035100073E089E494E00E94163661E771E089E483
:1035200094E00E9416362FEF37E042ED50E070E055
:1035300060E089E494E01F910F910C944D190F9372
:103540001F9380913A04882371F010923A040FE09F
:1035500010E02DE430E04CED50E065E370E084E6EF
:1035600090E00E94BD191F910F9108950F931F9332
:103570008C012FEE30E04FE351E070E060E090E02E
:1035800080E00E94BD191F910F9108950F931F9322
:10359000460F571F89019A01AC010E94BD191F9166
:1035A0000F9108950F931F93480F591F89019B0195
:1035B0000E94BD191F910F910895AF92BF92CF92B3
:1035C000DF92EF92FF920F931F93CF93DF93EC0163
:1035D0007B016A01590198010E94D21AB7016A0D54
:1035E0007B1D9801A601CE010E94D21A9801A50167
:1035F000B701CE010E94C61A9801A501B701CE01FC
:103600008C0D9D1DDF91CF911F910F91FF90EF9039
:10361000DF90CF90BF90AF900C94C61A0F931F937A
:10362000CF93DF93CDB7DEB72C970FB6F894DEBFFC
:103630000FBECDBF8B012CE0289FB001299F700DDC
:1036400011246F5C714F4CE050E0CE0101960E9456
:10365000DC342F8138854D815E816B817C8189814D
:103660009A810E94DD1A2C960FB6F894DEBF0FBE29
:10367000CDBFDF91CF911F910F9108953F924F924F
:103680005F926F927F928F929F92AF92BF92CF92F2
:10369000DF92EF92FF920F931F93CF93DF93CDB7FB
:1036A000DEB72C970FB6F894DEBF0FBECDBF8031CA
:1036B000910509F0AEC0BE016F5F7F4F84E791E0D6
:1036C0000E943F1380919E0390919F036FE771E0EA
:1036D000892B41F080910B0169E771E0803111F095
:1036E0006CE771E080E893E00E942A3680910B013C
:1036F000803109F07DC0609136047091370480916B
:1037000038049091390442E853E00E946613CC24B7
:10371000CA94DC2C8091A80381111CC06B817C8130
:1037200089819A812F813885260F371F4D815E81CF
:10373000480F591F10E000E00E94BD192F81388505
:103740004D815E816B817C810FEE1BE789819A81BF
:103750000E94DD1AE980FA8086E0E80EF11CAB8059
:10376000BC803501E3E06E0E711C88EA482E83E0D0
:10377000582E90E8892E93E0992EF8E1AF0EB11CF7
:10378000E0E8F3E001900020E9F7CF018158934091
:103790009401205833408217930708F46AC0F4015B
:1037A00031904F01F20181912F018315B9F02F81E2
:1037B000388526503109260D371D10E000E0A7019D
:1037C000415F5F4FB301C7010E94BD199601432DB0
:1037D000B501C7010E9472180E947715FAE33F16DF
:1037E00019F08EE2381241C0E7E0EE0EF11CC8CFAE
:1037F0006091160170911701809118019091190143
:1038000042E853E00E94661320EEC22E27E0D22E3B
:1038100081CF449709F07ECFBE016F5F7F4F82E872
:1038200091E00E943F1380919E0390919F0367E86F
:1038300071E0892B41F080910B0169E771E08431DF
:1038400011F06CE771E080E893E00E942A368091E5
:103850000B01843109F44FCF609111017091120175
:103860008091130190911401CBCFF0E1EF0EF11C88
:1038700087CF60E873E088EA93E02C960FB6F8945F
:10388000DEBF0FBECDBFDF91CF911F910F91FF9093
:10389000EF90DF90CF90BF90AF909F908F907F90F0
:1038A0006F905F904F903F900C942A3680910B015F
:1038B000082E000C990B0C943E1B80913B0488232E
:1038C00071F010923B046091A4037091A503809164
:1038D000A6039091A7030E94200F0C94561C0895F4
:1038E000EF92FF920F931F93CF93DF937C01EB0135
:1038F00090E080E00E94B61A0FEF1FEF2CED30E051
:103900004CE251E06AE070E08AE090E00E94DD1A4B
:103910002FEF3FEF48E151E06DE270E084E190E08D
:103920000E94D21A28ED30E048E251E06CE070E0ED
:103930008CE090E00E94DD1A2FEF37E044E150E088
:1039400064E170E0C7010E944D192FEF37E048ECA9
:1039500050E064E170E0CE01DF91CF911F910F91B3
:10396000FF90EF900C944D190F931F93CF93DF931B
:10397000EC01809104019091050197FD12C02EE1A8
:10398000289FB001299F700D11246F5C7F4F0FE0BD
:1039900010E029E130E042E251E08FE090E00E9447
:1039A000DD1A8EE18C9FB0018D9F700D11246F5C2C
:1039B0007F4F0FEF1FEF29E130E042E251E08FE04F
:1039C00090E00E94DD1AD0930501C0930401DF91BD
:1039D000CF911F910F9108952F923F924F925F9236
:1039E0006F927F928F929F92AF92BF92CF92DF920F
:1039F000EF92FF920F931F93CF93DF9300D000D0ED
:103A0000CDB7DEB71C013B015C834B832901480124
:103A1000FA82E9829A01200F311FA201460F571F37
:103A200086016B817C81C3010E94BD1985019401CF
:103A3000A2016B817C81C3010E94DD1AA090670402
:103A4000B0906804B5016C5F7F4FA5014B5F5F4F7D
:103A500022E0A20EB11C7101D10190E080E017E0DC
:103A60003D903320E9F0FB012490232D032C000C22
:103A7000330B2216130609F09CF7FA010491021782
:103A8000130674F3F501259134913218F901319E32
:103A9000E00DF11D11243496E4918E0F911DE0CFBD
:103AA000481A590A57FE03C0FFEF4F1A5F0A559490
:103AB0004794640C751CC401429797FD0196959537
:103AC00087952B813C81280F391F47E0B42E2E5E4D
:103AD0003F4F3C832B83F70141917F01442309F43D
:103AE0003AC08091670490916804FC013496249157
:103AF000642F042E000C770B2617170609F05CF7CD
:103B00003196E491E617170634F3FC01329685905E
:103B10009490842F821B8B9D800C911C1124F401A6
:103B2000329684913196E491882379F0EE2369F0FE
:103B3000F4013596E491860129813A816B817C817B
:103B4000C3010E9472180E947715F4013496E49123
:103B50006E0E711CC0CF0F900F900F900F90DF91E1
:103B6000CF911F910F91FF90EF90DF90CF90BF907A
:103B7000AF909F908F907F906F905F904F903F900D
:103B80002F900895AF92BF92CF92DF92EF92FF9263
:103B90000F931F9380913C048823F1F08FE1A82EAE
:103BA000B12C90E2C92E9DEFD92EF12CE12C0CE125
:103BB00010E025E230E040E350E068E171E08AE89F
:103BC00091E00E94EC1C1F910F91FF90EF90DF900D
:103BD000CF90BF90AF9008950FE010E02CE430E05C
:103BE0004DE351E060E370E088E191E00E94BD198F
:103BF000EACF10923C0460E087E00E9460084091A8
:103C0000200450912104609122047091230480E0EB
:103C10000E946A0E80913B04882361F06091A003AA
:103C20007091A1038091A2039091A3030E94200FA1
:103C30000C94C21D80919E0390919F030197D9F42B
:103C400080910B01843101F580E180930B0180911B
:103C5000160190911701A0911801B091190180935C
:103C6000360490933704A0933804B09339048091BC
:103C70001F0480933504609136047091370480915D
:103C8000380490913904D2CF8031A9F784E1809330
:103C90000B018091110190911201A0911301B0913B
:103CA00014018093360490933704A0933804B093A2
:103CB000390480910C01DDCFCF93C82F61E087E0FC
:103CC0000E94600881E080933C0480913B0488233B
:103CD00009F455C08091360490913704A0913804BE
:103CE000B09139048093A0039093A103A093A20301
:103CF000B093A3036091A4037091A5038091A603E0
:103D00009091A7030E94200FC130B1F560E087E0D9
:103D10000E94600840E050E0BA0180E00E946A0E14
:103D200040E050E0BA0181E00E946A0E2091350423
:103D300040913604509137046091380470913904F1
:103D400080910D0190910E01A0910F01B091100191
:103D5000222309F458C0480F591F6A1F7B1F82E0B5
:103D60000E946A0E64E170E080E090E00E94D30A55
:103D700061E087E00E946008CF910C94C21D8091A1
:103D80009E0390919F030197D9F480910B01843198
:103D900001F580E180930B0180911F04809335042D
:103DA0008091160190911701A0911801B09119010D
:103DB0008093360490933704A0933804B093390469
:103DC00060913604709137048091380490913904E1
:103DD00099CF8031A9F784E180930B018091110183
:103DE00090911201A0911301B091140180933604B7
:103DF00090933704A0933804B093390480910C0158
:103E000080933504DDCF481B590B6A0B7B0BA7CF82
:103E1000AF92BF92CF92DF92EF92FF920F931F93D8
:103E20000FE010E027E430E040E451E069E270E0A8
:103E300090E080E00E94BD1980913B048823B1F19D
:103E40006DE871E080E893E00E942A366091A40357
:103E50007091A5038091A6039091A70343E853E0D6
:103E60000E94661380910B014FE0A42EB12C5FE0FD
:103E7000C52ED12CEE24EA94FE2C0EE110E02FE9A1
:103E800030E04DE250E070E060E0803111F060EA37
:103E900070E080E893E00E94EC1C1F910F91FF906E
:103EA000EF90DF90CF90BF90AF90089580910B017D
:103EB0009FE0A92EB12C2FE0C22ED12CEE24EA9443
:103EC000FE2C0EE110E02FE930E04DE250E070E012
:103ED00060E0803111F060EA70E080E791E0DBCFD4
:103EE0004F925F926F927F928F929F92AF92BF920A
:103EF000CF92DF92EF92FF920F931F93CF93DF93B6
:103F00004C01DC011896CD91DC9164E771E0CE01A3
:103F10000E942136892BD9F4E8EAF3E08CE0DF0136
:103F20001D928A95E9F780E190E0DF91CF911F9192
:103F30000F91FF90EF90DF90CF90BF90AF909F9048
:103F40008F907F906F905F904F900C943E1B62E833
:103F500071E0CE010E942136892B51F4E8EAF3E0AA
:103F60008CE0DF011D928A95E9F784E190E0DDCFD6
:103F700060E571E0CE010E942136F40106811781CF
:103F8000648075804280538080809180892B21F4E9
:103F900080913B04813019F168E571E0CE010E9407
:103FA0002136892B21F4809135048130C1F064E5FC
:103FB00071E0CE010E942136892B21F480913504D5
:103FC000882369F061E971E0CE010E942136892BD6
:103FD00039F580919E0390919F03019709F53FEE7B
:103FE000A32E3BE7B32E90E2C92E9DEFD92EF12CE4
:103FF000E12C9301A201B401CE010E94EC1CDF91DF
:10400000CF911F910F91FF90EF90DF90CF90BF90D5
:10401000AF909F908F907F906F905F904F9008959A
:1040200065E971E0CE010E9421362FEEA22E2BE72A
:10403000B22E892B31F480913E0490913F04019778
:1040400091F2D12CC12C80EEE82E87E0F82ED1CF52
:10405000FF920F931F93CF93DF93CDB7DEB72C97CB
:104060000FB6F894DEBF0FBECDBF20919E033091F6
:104070009F03232BB1F110929F0310929E030E9485
:10408000701F0E945D1CBE016F5F7F4F80E591E055
:104090000E943F13CE0101960E94701F0E94081FCC
:1040A00008EA13E08CE0F82EF8018F2D11928A9522
:1040B000E9F780E190E00E943E1BF8011192FA942A
:1040C000E9F784E190E00E943E1B2C960FB6F8942D
:1040D000DEBF0FBECDBFDF91CF911F910F91FF903B
:1040E000089521E030E030939F0320939E03C7CFD3
:1040F000CF93DF93EC0180913B0481111AC0809132
:10410000360490913704A0913804B091390421E02D
:1041100020933B048093A4039093A503A093A6034C
:10412000B093A703CE010E94701FDF91CF910C9432
:10413000081F0E945D1CF6CFFF920F931F93CF9331
:10414000DF93CDB7DEB72C970FB6F894DEBF0FBE66
:10415000CDBF8FE090E00E94B61A08EA13E08CE031
:10416000F82EF8018F2D11928A95E9F780E190E001
:104170000E943E1B0E947715F8011192FA94E9F70C
:1041800084E190E00E943E1B0E9477150E94081F68
:104190000E94771501E31EE04CE050E0B801CE012B
:1041A00001960E94DC34CE0101960E94701F0E948D
:1041B0007715045F1F4FFEE00D3F1F0769F70E9450
:1041C000501A0E9477152C960FB6F894DEBF0FBEDA
:1041D000CDBFDF91CF911F910F91FF900895AF92C6
:1041E000BF92CF92DF92EF92FF920F931F932EE137
:1041F000E0E8F3E0DF01322F1D923A95E9F7E9E4B8
:10420000F4E0DF011D922A95E9F72AE0AF010E9450
:10421000143542E050E069E474E080E893E00E94E5
:10422000313663EB71E080E893E00E94163643E09C
:1042300050E06BE474E080E893E00E94313663EB79
:1042400071E080E893E00E94163641E050E06EE4B1
:1042500074E080E893E00E9431368FE0A82EB12C04
:104260009FE0C92ED12CEE24EA9427E0F22E0EE135
:1042700010E024E630E044E650E06EE670E080E8CE
:1042800093E00E94EC1C1F910F91FF90EF90DF9044
:10429000CF90BF90AF900895AF92BF92CF92DF9230
:1042A000EF92FF920F931F9390E080E00E94B61A66
:1042B000AA24AA94BA2C9FE0C92ED12CEE24EA9409
:1042C000FE2C03E210E02CE231E04AE050E06AE02C
:1042D00070E088E991E00E94EC1C0FEF1FEF2CEDDD
:1042E00030E04CE251E06AE070E08AE090E00E9449
:1042F000DD1A2FEF3FEF42E350E06EE170E08EE910
:1043000091E00E944D192FEF3FEF40E550E06EE144
:1043100070E08AEA91E00E944D192FEF3FEF4EE6E0
:1043200050E06EE170E085EB91E00E944D192FEFB7
:104330003FEF4CE850E06EE170E081EC91E00E94CC
:104340004D192FEF3FEF4AEA50E06EE170E08DEC3F
:1043500091E00E944D192FEF3FEF48EC50E06EE1E5
:1043600070E08DED91E01F910F91FF90EF90DF9045
:10437000CF90BF90AF900C944D194F925F926F9277
:104380007F928F929F92AF92BF92CF92DF92EF92E5
:10439000FF920F931F93CF93DF9390E080E00E94F2
:1043A000B61AB12CA12CD12CC12CEE24EA94FE2CEF
:1043B00002E310E028EC30E044E650E064E170E015
:1043C00082EE91E00E94EC1C2FEF3FEF44E150E0C1
:1043D00064E170E08AE090E00E94D21A2FEF3FEF94
:1043E00044E150E06AE070E084E190E00E94C61A87
:1043F0000E941011811107C064E670E080E090E037
:104400000E94D30AF5CF0E941011882339F064E688
:1044100070E080E090E00E94D30AF5CFA09069049C
:10442000B0906A04C0906B04D0906C0430E020E03F
:1044300044E150E064E170E08AE090E00E94D21A2A
:1044400030E020E044E150E06AE070E084E190E098
:104450000E94C61A68EE73E080E090E00E94D30AE2
:104460002FEF3FEF44E150E064E170E082E291E041
:104470000E94D21A2FEF3FEF44E150E06AE070E073
:104480008CE291E00E94C61A0E941011811107C0AF
:1044900064E670E080E090E00E94D30AF5CF0E94CD
:1044A0001011882339F064E670E080E090E00E940B
:1044B000D30AF5CFE0906904F0906A0440906B0451
:1044C00050906C0430E020E044E150E064E170E0A2
:1044D00082E291E00E94D21A30E020E044E150E014
:1044E0006AE070E08CE291E00E94C61A68EE73E028
:1044F00080E090E00E94D30A2FEF3FEF44E150E0CC
:104500006CED70E08AE090E00E94D21A2FEF3FEF4E
:1045100044E150E062ED70E084E190E00E94C61A50
:104520000E941011811107C064E670E080E090E005
:104530000E94D30AF5CF8090690490906A04C091DC
:104540006B04D0916C040E941011882339F064E64A
:1045500070E080E090E00E94D30AF5CF30E020E0E8
:1045600044E150E06CED70E08AE090E00E94D21AE5
:1045700030E020E044E150E062ED70E084E190E062
:104580000E94C61A68EE73E080E090E00E94D30AB1
:104590002FEF3FEF44E150E06CED70E082E291E0FC
:1045A0000E94D21A2FEF3FEF44E150E062ED70E03D
:1045B0008CE291E00E94C61A0E941011811107C07E
:1045C00064E670E080E090E00E94D30AF5CF0091AD
:1045D000690410916A0460906B0470906C0430E080
:1045E00020E044E150E06CED70E082E291E00E9456
:1045F000D21A30E020E044E150E062ED70E08CE25D
:1046000091E00E94C61A08191909C7018A199B0965
:10461000800F911F68E370E00E9476359B017093D4
:10462000250160932401CC19DD09C3018419950982
:104630008C0F9D1F68E270E00E9476357093210117
:104640006093200190E080E0AC01421B530B9A0183
:10465000220F331FA20EB31EB0922701A092260193
:10466000861B970B880F991FC80ED91ED092230165
:10467000C092220164E271E080E290E00E94E913BE
:1046800060E271E084E290E00E94E91366E271E08A
:1046900088E290E00E94E91362E271E08CE290E02F
:1046A0000E94E91390E080E0DF91CF911F910F917C
:1046B000FF90EF90DF90CF90BF90AF909F908F9042
:1046C0007F906F905F904F900C94B61ACF92DF92CC
:1046D000EF92FF926B017C014091360450913704B8
:1046E0006091380470913904DB01CA01805E9746FD
:1046F000A543B109813221EA920727E0A207B1055B
:10470000B0F0DB01CA019B56AA47B14081342DE0CD
:10471000920723E0A207B10550F0CB01BA0120E4D3
:1047200032E44FE050E00E948A35DC01CB01BC014D
:10473000CD016C0D7D1D8E1D9F1D0E94200F0E94BE
:10474000561CFF90EF90DF90CF900C944314CF93C2
:10475000DF93CDB7DEB72C970FB6F894DEBF0FBE50
:10476000CDBF64E571E0FC01808591850E94213612
:10477000892B69F510923504BE016F5F7F4F88E584
:1047800091E00E943F13CE0101960E94701FBE016E
:104790006F5F7F4F84E591E00E943F13CE01019649
:1047A0000E94701F60913604709137048091380424
:1047B000909139040E94200F0E9443142C960FB64A
:1047C000F894DEBF0FBECDBFDF91CF91089581E099
:1047D00080933504D1CF8F929F92AF92BF92CF92A8
:1047E000DF92EF92FF920F931F93CF93DF93CDB79A
:1047F000DEB72C970FB6F894DEBF0FBECDBF4C01CD
:10480000DC0118960D911C9164E771E0C8010E94CB
:104810002136892B29F580910B018031E1F48091BB
:104820003A048823A9F00E949F1A2C960FB6F89498
:10483000DEBF0FBECDBFDF91CF911F910F91FF90D3
:10484000EF90DF90CF90BF90AF909F908F900895A2
:104850000E94B019EACF80E190E00E948914E5CF70
:1048600062E871E0C8010E942136892B39F48091F9
:104870000B018431A1F284E190E0EFCF0E949F1AF6
:10488000F4010085118560E571E0C8010E942136C0
:10489000892B21F4C4010E947820C7CF64E571E020
:1048A000C8010E942136892B21F4C4010E94A7234C
:1048B000BCCF68E571E0C8010E942136892BA9F3BD
:1048C00065E971E0C8010E942136892BF9F48091D5
:1048D0003E0490913F04892BA1F481E090E09093F5
:1048E0003F0480933E0460913604709137048091B8
:1048F0003804909139040E94200FC4010E94701F57
:1049000094CF10923F0410923E04EDCF61E971E024
:10491000C8010E942136892B21F4C4010E9428205D
:1049200084CF65EF71E0C8010E942136892B09F020
:104930004BC080E180930B0180911601909117018B
:10494000A0911801B0911901809311019093120167
:10495000A0931301B093140180919E0390919F0343
:10496000892B59F0BE016F5F7F4F81E991E00E9472
:104970003F13CE0101960E94282080913B0488239A
:1049800059F0BE016F5F7F4F80E591E00E943F13B9
:10499000CE0101960E94782008EA13E03CE0F32E55
:1049A000D801EF2D1D92EA95E9F780E190E00E9491
:1049B0003E1BD8011D92FA94E9F784E190E00E9431
:1049C0003E1B0E94431431CF69EF71E0C8010E9481
:1049D0002136892B39F460EE77E685E390E00E947A
:1049E000662323CF6CEF71E0C8010E942136892B2A
:1049F00029F460EC7FEC8AE690E0F1CF6FEF71E094
:104A0000C8010E942136892B29F460E876E988E9FB
:104A100090E0E5CF62E072E0C8010E942136892B68
:104A200029F460E87FE985ED90E0D9CF65E072E098
:104A3000C8010E942136892B29F460E878EA82E1D6
:104A400091E0CDCF68E072E0C8010E942136892B49
:104A500029F460E47FE680E491E0C1CF6BE072E08E
:104A6000C8010E942136892B29F460E07BE68AE7A1
:104A700091E0B5CF6EE072E0C8010E942136892B2B
:104A800029F460E07FE38BEA91E0A9CF61E172E075
:104A9000C8010E9421364C01892B09F001C10EE5A5
:104AA0001DE04CE050E0B801CE0101960E94DC34DC
:104AB000CE0101960E94701F045F1F4FBEE00A32B4
:104AC0001B0779F7E0E8F3E08EE1DF011D928A959C
:104AD000E9F70E9477150E9410118823D1F30E94F4
:104AE000D7070EE51DE04CE050E0B801CE0101967D
:104AF0000E94DC3489819A812091690430916A0492
:104B0000821793070CF07BC04D815E81840F951F47
:104B1000281739070CF073C08B819C8120916B049E
:104B200030916C04821793070CF069C04F8158854F
:104B3000840F951F281739070CF061C0E984FA84A7
:104B400065E172E0C7010E942136892B09F041C05E
:104B500080E893E00E94B5349B01AC01DC01CB01FD
:104B600085569109A109B1098C3C9447A105B1056D
:104B700020F5A8EEB3E00E94E93560933604709307
:104B8000370480933804909339040E94200F2091B9
:104B90000B018091360490913704A0913804B091B4
:104BA0003904203169F48093160190931701A09382
:104BB0001801B09319010E9443140E949C2035CE25
:104BC0008093110190931201A0931301B0931401EB
:104BD000F2CF68E172E0C7010E942136892B09F00B
:104BE00044C0F401E058FC4F10828114910419F084
:104BF000F1E08F1A9108F401E058FC4F1082045F35
:104C00001F4FBEE00A321B0709F06DCF60E873E06A
:104C100089E494E00E942A366FE172E089E494E02E
:104C20000E9416368FE0A82EB12C9FE0C92ED12C01
:104C3000EE24EA94FE2C0EE110E020E431E04AE29A
:104C400050E070E060E089E494E00E94EC1C6CE2CB
:104C500071E080E090E00E94D30A0E941011882346
:104C600009F437CF0E947715F8CF6BE172E0C701E6
:104C70000E942136892B09F4A0CFD7012C9180ED19
:104C8000820F8A3008F0BBCFC4010196F401E058CE
:104C9000FC4F2083FC01E058FC4F10824C01AFCF49
:104CA0006AE272E0C8010E942136892B09F091C0A6
:104CB00060911A0170911B0180EB94E00E9476359F
:104CC0008B014B010E94460E892B29F084E690E06F
:104CD0000E943718F7CF88EC90E00E94371864E202
:104CE00072E089E494E00E942A364AE060E873E0CA
:104CF000C8010E94E53460E873E089E494E00E9412
:104D0000163669E272E089E494E00E9416360E9449
:104D1000361A0E94460E892B61F481E10E94370801
:104D2000019739F40E94A112009729F50E94771586
:104D3000F0CF0FE010E02DE430E046E351E065E312
:104D400070E08EE190E00E94BD1980EB94E0B40128
:104D50000E94763570931B0160931A016AE171E03D
:104D60008CE190E00E94E91384EF91E00E943718F3
:104D70000E94501A5ACDE2E08E1691044CF097FF33
:104D800003C0F1E08F1A910824E68216910434F4EE
:104D9000181619061CF46FEF861A960A64E272E080
:104DA00089E494E00E942A364AE060E873E0C40196
:104DB0000E94E53460E873E089E494E00E941636CE
:104DC00069E272E089E494E00E9416360E94361A85
:104DD000ADCF6EE272E0C8010E942136892B09F046
:104DE00024CD80910D0190910E010E94BF08809109
:104DF0000D0190910E010E94BF084AE060E873E047
:104E000080910D0190910E010E94E53462E372E001
:104E100089E494E00E942A3660E873E089E494E033
:104E20000E9416366CE372E089E494E00E94163624
:104E30000E94361A81E10E9437080197E1F40E942E
:104E4000460E892BC1F40E94A112181619064CF1C6
:104E5000892B81F380910D0190910E01A0910F019A
:104E6000B091100185369105A105B10518F30A9797
:104E7000A109B10928C086E00E94110B6DE071E024
:104E800088E190E00E9410140FE010E029E430E087
:104E900046E351E069E270E08EE190E00E94BD19C6
:104EA00067CF80910D0190910E01A0910F01B091FB
:104EB0001001803DE7E09E07A105B10508F0BACFDB
:104EC0000A96A11DB11D80930D0190930E01A09330
:104ED0000F01B093100180910D0190910E010E947D
:104EE000BF084AE060E873E080910D0190910E01E7
:104EF0000E94E53462E372E089E494E00E942A367D
:104F000060E873E089E494E00E9416366CE372E096
:104F100089E494E00E9416360E94361A0E947715A2
:104F200084E190E00E94371885CFCF9360E472E06F
:104F300083E592E00E94701C88EC97EAA8EAB0E052
:104F40008093200490932104A0932204B09323041F
:104F500048EC57EA68EA70E080E00E946A0E6091CF
:104F600020047091210480912204909123040E94D6
:104F7000EF20C2E30E94460E892BE9F50E94A112A0
:104F80000097C1F3C89F9001C99F300D1124C9013A
:104F9000330FAA0BBB0B4091200450912104609168
:104FA000220470912304481B590B6A0B7B0B40931E
:104FB000200450932104609322047093230480E022
:104FC0000E946A0E60913604709137048091380413
:104FD000909139040E94200F609120047091210467
:104FE00080912204909123040E94EF2084E690E0B7
:104FF0000E943718BFCF60E274E088E090E00E9422
:105000001014409120045091210460912204709169
:10501000230480E00E946A0E609136047091370488
:1050200080913804909139040E94200F0E94561CF0
:1050300010923404CF9108958F929F92AF92BF92B5
:10504000CF92DF92EF92FF920F931F93CF93DF9354
:1050500000D0CDB7DEB76BE572E08DE692E00E943E
:10506000701C6091360470913704809138049091DF
:10507000390458EE852E53E0952EA12CB12CA501B4
:1050800094010E948A35A8EEB3E00E94E93560934E
:1050900036047093370480933804909339040E9447
:1050A000200F2FEF37E042E350E064E170E08BE740
:1050B00092E00E944D192FEF37E04BE450E064E19D
:1050C00070E08DE892E00E944D1960913604709175
:1050D00037048091380490913904A50194010E940D
:1050E0008A35CA01B9012AE040E853E00E94F03451
:1050F0006FE172E080E893E00E9416362FEF37E010
:1051000044E650E064E170E080E893E00E944D19CD
:105110002FEF37E044EB50E064E170E080EA92E08A
:105120000E944D190E94460E892B29F084E690E0DA
:105130000E943718F7CF84E690E00E94371810924B
:1051400024041092250410922604109227044BE6A2
:10515000842E43E0942E0E94460E892B09F07BC0DA
:105160000E94A1120097B9F3889DA001899D500D5E
:10517000989D500D1124052E000C660B770B809125
:10518000240490912504A0912604B0912704840F53
:10519000951FA61FB71F8093240490932504A09306
:1051A0002604B0932704409120045091210460917B
:1051B00022047091230480E00E946A0E80912404EE
:1051C00090912504A0912604B091270480549F4813
:1051D000A84DBB4C8093070190930801A09309014F
:1051E000B0930A014091200450912104609122045F
:1051F0007091230480E00E946A0E609136047091E1
:10520000370480913804909139040E94200F6091F6
:1052100024047091250480912604909127042AE0AB
:1052200049E454E00E94F034AA24AA94BA2C2FE056
:10523000C22ED12CEE24EA9437E0F32E0AE110E0DE
:1052400024E630E04CE850E064E670E089E494E065
:105250000E94EC1C80CF84E2882E84E0982E10E01F
:1052600000E01A830983F40161914F01CE01019698
:105270000E94D0130F5F1F4F0430110591F70E9459
:10528000CB0F8091240490912504A0912604B09125
:10529000270480549F48A84DBB4C809307019093EE
:1052A0000801A0930901B0930A0140912004509194
:1052B0002104609122047091230480E00E946A0E10
:1052C00060913604709137048091380490913904CC
:1052D0000E94200F0E94460E892B29F082E390E065
:1052E0000E943718F7CF84E690E00E9437180F909D
:1052F0000F90DF91CF911F910F91FF90EF90DF9072
:10530000CF90BF90AF909F908F9008951F920F9273
:105310000FB60F9211242F933F938F939F93AF93C8
:10532000BF938091410490914204A0914304B091B5
:1053300044043091400423E0230F2D3758F50196A3
:10534000A11DB11D20934004809341049093420419
:10535000A0934304B0934404809145049091460483
:10536000A0914704B09148040196A11DB11D8093FE
:10537000450490934604A0934704B0934804BF911A
:10538000AF919F918F913F912F910F900FBE0F90F2
:105390001F90189526E8230F0296A11DB11DD2CFAC
:1053A0001F920F920FB60F9211242F933F934F939A
:1053B0005F936F937F938F939F93AF93BF93EF937D
:1053C000FF938091C2049091C304A091C404B09152
:1053D000C504892B8A2B8B2BD1F19091BD04E091D0
:1053E000BE04F091BF048081892780838091C2042C
:1053F0009091C304A091C404B091C5041816190675
:105400001A061B069CF48091C2049091C304A091DB
:10541000C404B091C5040197A109B1098093C204E5
:105420009093C304A093C404B093C504FF91EF917B
:10543000BF91AF919F918F917F916F915F914F91AC
:105440003F912F910F900FBE0F901F901895809154
:1054500028010E94110BEACF1F920F920FB60F92F4
:1054600011242F933F934F935F936F937F938F9369
:105470009F93AF93BF93EF93FF938EEC94E00E94C2
:10548000BB0BFF91EF91BF91AF919F918F917F9156
:105490006F915F914F913F912F910F900FBE0F90A1
:1054A0001F9018951F920F920FB60F9211242F93F1
:1054B0008F939F93EF93FF93E091DE04F091DF04CD
:1054C0008081E091E404F091E50482FD1BC09081AD
:1054D0008091E7048F5F8F732091E804821741F079
:1054E000E091E704F0E0E253FB4F958F8093E704EF
:1054F000FF91EF919F918F912F910F900FBE0F9081
:105500001F9018958081F4CF1F920F920FB60F92C3
:1055100011242F933F934F935F936F937F938F93B8
:105520009F93AF93BF93EF93FF938091B900887FD0
:10553000803609F44AC0F0F5883209F4A7C018F59E
:10554000803109F49BC0B8F4882309F4F9C088308D
:1055500009F494C0FF91EF91BF91AF919F918F910A
:105560007F916F915F914F913F912F910F900FBE5F
:105570000F901F901895883109F488C0803251F738
:105580008093910414C0803409F49DC040F48033AA
:10559000B9F38833F9F68093910485ECB0C0803577
:1055A00009F485C0883509F496C0883499F60E94BC
:1055B0000713D0CF883909F48CC038F5883729F023
:1055C00050F4883611F0803729F683E080939304F5
:1055D00010921D0457C0883809F47BC0803919F037
:1055E000803809F0B7CF80911D04803208F071C077
:1055F000E0911D0481E08E0F80931D048091BB001B
:10560000F0E0E350FC4F80833DC0803B39F0E0F494
:10561000803A09F479C0883A09F09CCF84E08093FD
:1056200093041092FA031092F903E091F703F091BA
:10563000F80309958091F90381110FC081E08093EF
:10564000F9031092D70309C0803C09F4A6CF883C27
:1056500009F4A3CF883B09F07DCFE091FA0381E004
:105660008E0F8093FA03F0E0E952FC4F8081809323
:10567000BB009091FA038091F90329C080916E04D8
:105680008093BB0085EC8093BC0064CF9091900424
:1056900080918F04981758F5E091900481E08E0F67
:1056A00080939004F0E0E159FB4F8081E9CFE091D5
:1056B000900481E08E0F809390048091BB00F0E015
:1056C000E159FB4F80839091900480918F0498174B
:1056D000C8F285E8D8CFE091900481E08E0F8093E6
:1056E00090048091BB00F0E0E159FB4F80838091F2
:1056F000920481115CCF81E080936D0484EA8093F1
:10570000BC001092930426CF85EC8093BC001092CD
:10571000930480911D04803230F4E0911D04F0E088
:10572000E350FC4F108260911D0470E0E091FB0398
:10573000F091FC038DEF93E0099510921D040ACFC0
:105740001092910434CF1F920F920FB60F92112432
:105750008F939F9380912A0390912B038B30910517
:1057600064F00A9790932B0380932A039F918F9163
:105770000F900FBE0F901F90189510922B03109250
:105780002A03F4CF1F920F920FB60F9211242F937A
:105790003F934F935F936F937F938F939F93AF93B9
:1057A000BF93EF93FF930E94B31290912804981730
:1057B000B1F191111EC0823009F049C040912A0315
:1057C00050912B032091290430912A044E31510528
:1057D000BCF12451310930932A0420932904483222
:1057E0005105D9F04F5F5F4F50932B0340932A032D
:1057F00014C0923029F4833009F381110EC029C0FE
:10580000933029F48130D1F2823039F422C09130C2
:1058100021F4882399F28330E1F080932804FF91EA
:10582000EF91BF91AF919F918F917F916F915F9118
:105830004F913F912F910F900FBE0F901F90189591
:105840002150310930932A0420932904CBCF813091
:1058500021F740912A0350912B0320912904309184
:105860002A044E3151051CF02C5E3F4FB4CF2F5F00
:105870003F4FE8CFEEECF4E01382128288EE93E023
:10588000A0E0B0E084839583A683B78320E331E072
:105890003183208325EC30E03587248724EC30E009
:1058A0003787268720EC30E0318B208B21EC30E0ED
:1058B000338B228B22EC30E0358B248B26EC30E0CE
:1058C000378B268B118E128E138E148EEBE6F5E03D
:1058D0001382128284839583A683B78382E491E046
:1058E000918380830895CF93DF93CDB7DEB72C9754
:1058F0000FB6F894DEBF0FBECDBF789484B582603A
:1059000084BD84B5816084BD85B5826085BD85B563
:10591000816085BD80916E00816080936E001092E1
:10592000810080918100826080938100809181005C
:1059300081608093810080918000816080938000ED
:105940008091B10084608093B1008091B00081604B
:105950008093B00080917A00846080937A00809177
:105960007A00826080937A0080917A0081608093CF
:105970007A0080917A00806880937A001092C1004A
:10598000E091DE04F091DF0482E08083E091DA04AC
:10599000F091DB041082E091DC04F091DD0483E3FC
:1059A00080831092E604E091E204F091E30486E043
:1059B0008083E091E004F091E10480818061808344
:1059C000E091E004F091E104808188608083E091BF
:1059D000E004F091E104808180688083E091E0043C
:1059E000F091E10480818F7D80838EEC94E00E94B1
:1059F0002A0C1FB7F89480911E04811127C0EDE492
:105A0000FFE08491EFE2FFE09491E82FF0E0EE0FE9
:105A1000FF1FE350F14FA591B491EC91E92321F4DC
:105A200061E08AE00E94600861E08AE00E948E08DE
:105A30008CB580618CBD8CB580648CBD61E08DE0DF
:105A40000E948E0861E08BE00E948E0880911E0407
:105A50008F5F80931E041FBF8CB58C7F8CBD8DB56E
:105A60008E7F8DBD8CB58F7D8CBD8CB5837F8CBDBD
:105A70008AE29EE0909368048093670461E08AE084
:105A80000E948E0861E089E00E948E0860E08AE052
:105A90000E9460088BEC0E94C41089E30E94B2103F
:105AA0008CE20E94B21080E00E94B21084E30E9457
:105AB000B21082E00E94B2108FEC0E94C41080E00D
:105AC0000E94B21081EC0E94B21080E30E94B210DA
:105AD00088EE0E94C41085E80E94B21080E00E9407
